{
  "contractName": "Lottery",
  "abi": [
    {
      "inputs": [],
      "stateMutability": "nonpayable",
      "type": "constructor"
    },
    {
      "inputs": [],
      "name": "owner",
      "outputs": [
        {
          "internalType": "address",
          "name": "",
          "type": "address"
        }
      ],
      "stateMutability": "view",
      "type": "function",
      "constant": true
    },
    {
      "inputs": [
        {
          "internalType": "uint256",
          "name": "",
          "type": "uint256"
        }
      ],
      "name": "players",
      "outputs": [
        {
          "internalType": "address",
          "name": "",
          "type": "address"
        }
      ],
      "stateMutability": "view",
      "type": "function",
      "constant": true
    },
    {
      "inputs": [],
      "name": "enterLottery",
      "outputs": [],
      "stateMutability": "payable",
      "type": "function",
      "payable": true
    },
    {
      "inputs": [],
      "name": "pickWinner",
      "outputs": [],
      "stateMutability": "nonpayable",
      "type": "function"
    },
    {
      "inputs": [],
      "name": "playersLength",
      "outputs": [
        {
          "internalType": "uint256",
          "name": "",
          "type": "uint256"
        }
      ],
      "stateMutability": "view",
      "type": "function",
      "constant": true
    },
    {
      "inputs": [],
      "name": "allPlayers",
      "outputs": [
        {
          "internalType": "address[]",
          "name": "",
          "type": "address[]"
        }
      ],
      "stateMutability": "view",
      "type": "function",
      "constant": true
    }
  ],
  "bytecode": "0x608060405234801561001057600080fd5b50336000806101000a81548173ffffffffffffffffffffffffffffffffffffffff021916908373ffffffffffffffffffffffffffffffffffffffff160217905550610649806100606000396000f3fe6080604052600436106100555760003560e01c80635d495aea1461005a5780638da5cb5b14610071578063b0ec8094146100c8578063c1af578514610134578063d2079c0f1461013e578063f71d96cb14610169575b600080fd5b34801561006657600080fd5b5061006f6101e4565b005b34801561007d57600080fd5b506100866102c6565b604051808273ffffffffffffffffffffffffffffffffffffffff1673ffffffffffffffffffffffffffffffffffffffff16815260200191505060405180910390f35b3480156100d457600080fd5b506100dd6102eb565b6040518080602001828103825283818151815260200191508051906020019060200280838360005b83811015610120578082015181840152602081019050610105565b505050509050019250505060405180910390f35b61013c610379565b005b34801561014a57600080fd5b5061015361045b565b6040518082815260200191505060405180910390f35b34801561017557600080fd5b506101a26004803603602081101561018c57600080fd5b8101908080359060200190929190505050610468565b604051808273ffffffffffffffffffffffffffffffffffffffff1673ffffffffffffffffffffffffffffffffffffffff16815260200191505060405180910390f35b60006001805490506101f46104a4565b816101fb57fe5b0690506001818154811061020b57fe5b9060005260206000200160009054906101000a900473ffffffffffffffffffffffffffffffffffffffff1673ffffffffffffffffffffffffffffffffffffffff166108fc479081150290604051600060405180830381858888f1935050505015801561027b573d6000803e3d6000fd5b5060006040519080825280602002602001820160405280156102ac5781602001602082028038833980820191505090505b50600190805190602001906102c2929190610546565b5050565b6000809054906101000a900473ffffffffffffffffffffffffffffffffffffffff1681565b6060600180548060200260200160405190810160405280929190818152602001828054801561036f57602002820191906000526020600020905b8160009054906101000a900473ffffffffffffffffffffffffffffffffffffffff1673ffffffffffffffffffffffffffffffffffffffff1681526020019060010190808311610325575b5050505050905090565b6702c68af0bb14000034116103f6576040517f08c379a000000000000000000000000000000000000000000000000000000000815260040180806020018281038252601f8152602001807f53686f756c642068617665206d6f7265207468616e206d696e2076616c75650081525060200191505060405180910390fd5b6001339080600181540180825580915050600190039060005260206000200160009091909190916101000a81548173ffffffffffffffffffffffffffffffffffffffff021916908373ffffffffffffffffffffffffffffffffffffffff160217905550565b6000600180549050905090565b6001818154811061047557fe5b906000526020600020016000915054906101000a900473ffffffffffffffffffffffffffffffffffffffff1681565b60004442600160405160200180848152602001838152602001828054801561052157602002820191906000526020600020905b8160009054906101000a900473ffffffffffffffffffffffffffffffffffffffff1673ffffffffffffffffffffffffffffffffffffffff16815260200190600101908083116104d7575b505093505050506040516020818303038152906040528051906020012060001c905090565b8280548282559060005260206000209081019282156105bf579160200282015b828111156105be5782518260006101000a81548173ffffffffffffffffffffffffffffffffffffffff021916908373ffffffffffffffffffffffffffffffffffffffff16021790555091602001919060010190610566565b5b5090506105cc91906105d0565b5090565b61061091905b8082111561060c57600081816101000a81549073ffffffffffffffffffffffffffffffffffffffff0219169055506001016105d6565b5090565b9056fea26469706673582212209924bb3ae836868f0e84907a6027ac6d5d3445192616855648ff6bd758c4b49b64736f6c63430006000033",
  "source": "pragma solidity ^0.6.0;\n\n\ncontract Lottery {\n    address public owner;\n    address[] public players;\n\n    constructor() public {\n        owner = msg.sender;\n    }\n\n    modifier restricted() {\n        require(msg.sender == owner, \"Only the Owner can call this\");\n        _;\n    }\n\n    function enterLottery() public payable {\n        require(msg.value > 0.2 ether, \"Should have more than min value\");\n        players.push(msg.sender);\n    }\n\n    function random() private view returns (uint256) {\n        return\n            uint256(\n                keccak256(\n                    abi.encodePacked(block.difficulty, block.timestamp, players)\n                )\n            );\n    }\n\n    function pickWinner() public {\n        uint256 index = random() % players.length;\n        payable(players[index]).transfer(address(this).balance);\n        players = new address[](0);\n    }\n\n    function playersLength() public view returns (uint256) {\n        return players.length;\n    }\n\n    function allPlayers() public view returns (address[] memory) {\n        return players;\n    }\n}\n",
  "sourcePath": "/home/biryani/Desktop/consensolabs/learning/lottery-dapp/contracts/Lottery.sol",
  "compiler": {
    "name": "solc",
    "version": "0.6.0+commit.26b70077.Emscripten.clang"
  },
  "schemaVersion": "3.2.0",
  "updatedAt": "2020-06-04T18:37:32.180Z",
  "networkType": "ethereum",
  "devdoc": {
    "methods": {}
  },
  "userdoc": {
    "methods": {}
  }
}