{
  "contractName": "Lottery",
  "abi": [
    {
      "inputs": [],
      "stateMutability": "nonpayable",
      "type": "constructor"
    },
    {
      "inputs": [],
      "name": "balance",
      "outputs": [
        {
          "internalType": "uint256",
          "name": "",
          "type": "uint256"
        }
      ],
      "stateMutability": "view",
      "type": "function",
      "constant": true
    },
    {
      "inputs": [],
      "name": "owner",
      "outputs": [
        {
          "internalType": "address",
          "name": "",
          "type": "address"
        }
      ],
      "stateMutability": "view",
      "type": "function",
      "constant": true
    },
    {
      "inputs": [
        {
          "internalType": "uint256",
          "name": "",
          "type": "uint256"
        }
      ],
      "name": "players",
      "outputs": [
        {
          "internalType": "address",
          "name": "",
          "type": "address"
        }
      ],
      "stateMutability": "view",
      "type": "function",
      "constant": true
    },
    {
      "inputs": [],
      "name": "enterLottery",
      "outputs": [],
      "stateMutability": "payable",
      "type": "function",
      "payable": true
    },
    {
      "inputs": [],
      "name": "random",
      "outputs": [
        {
          "internalType": "uint256",
          "name": "",
          "type": "uint256"
        }
      ],
      "stateMutability": "view",
      "type": "function",
      "constant": true
    },
    {
      "inputs": [],
      "name": "pickWinner",
      "outputs": [],
      "stateMutability": "nonpayable",
      "type": "function"
    },
    {
      "inputs": [],
      "name": "playersLength",
      "outputs": [
        {
          "internalType": "uint256",
          "name": "",
          "type": "uint256"
        }
      ],
      "stateMutability": "view",
      "type": "function",
      "constant": true
    },
    {
      "inputs": [],
      "name": "allPlayers",
      "outputs": [
        {
          "internalType": "address[]",
          "name": "",
          "type": "address[]"
        }
      ],
      "stateMutability": "view",
      "type": "function",
      "constant": true
    }
  ],
  "bytecode": "0x608060405234801561001057600080fd5b50336000806101000a81548173ffffffffffffffffffffffffffffffffffffffff021916908373ffffffffffffffffffffffffffffffffffffffff1602179055506107a7806100606000396000f3fe60806040526004361061007b5760003560e01c8063b69ef8a81161004e578063b69ef8a814610185578063c1af5785146101b0578063d2079c0f146101ba578063f71d96cb146101e55761007b565b80635d495aea146100805780635ec01e4d146100975780638da5cb5b146100c2578063b0ec809414610119575b600080fd5b34801561008c57600080fd5b50610095610260565b005b3480156100a357600080fd5b506100ac61040e565b6040518082815260200191505060405180910390f35b3480156100ce57600080fd5b506100d76104b0565b604051808273ffffffffffffffffffffffffffffffffffffffff1673ffffffffffffffffffffffffffffffffffffffff16815260200191505060405180910390f35b34801561012557600080fd5b5061012e6104d5565b6040518080602001828103825283818151815260200191508051906020019060200280838360005b83811015610171578082015181840152602081019050610156565b505050509050019250505060405180910390f35b34801561019157600080fd5b5061019a610563565b6040518082815260200191505060405180910390f35b6101b8610569565b005b3480156101c657600080fd5b506101cf61065b565b6040518082815260200191505060405180910390f35b3480156101f157600080fd5b5061021e6004803603602081101561020857600080fd5b8101908080359060200190929190505050610668565b604051808273ffffffffffffffffffffffffffffffffffffffff1673ffffffffffffffffffffffffffffffffffffffff16815260200191505060405180910390f35b6000809054906101000a900473ffffffffffffffffffffffffffffffffffffffff1673ffffffffffffffffffffffffffffffffffffffff163373ffffffffffffffffffffffffffffffffffffffff1614610322576040517f08c379a000000000000000000000000000000000000000000000000000000000815260040180806020018281038252601c8152602001807f4f6e6c7920746865204f776e65722063616e2063616c6c20746869730000000081525060200191505060405180910390fd5b600060018054905061033261040e565b8161033957fe5b0690506001818154811061034957fe5b9060005260206000200160009054906101000a900473ffffffffffffffffffffffffffffffffffffffff1673ffffffffffffffffffffffffffffffffffffffff166108fc6002549081150290604051600060405180830381858888f193505050501580156103bb573d6000803e3d6000fd5b5060006040519080825280602002602001820160405280156103ec5781602001602082028038833980820191505090505b50600190805190602001906104029291906106a4565b50600060028190555050565b60004442600160405160200180848152602001838152602001828054801561048b57602002820191906000526020600020905b8160009054906101000a900473ffffffffffffffffffffffffffffffffffffffff1673ffffffffffffffffffffffffffffffffffffffff1681526020019060010190808311610441575b505093505050506040516020818303038152906040528051906020012060001c905090565b6000809054906101000a900473ffffffffffffffffffffffffffffffffffffffff1681565b6060600180548060200260200160405190810160405280929190818152602001828054801561055957602002820191906000526020600020905b8160009054906101000a900473ffffffffffffffffffffffffffffffffffffffff1673ffffffffffffffffffffffffffffffffffffffff168152602001906001019080831161050f575b5050505050905090565b60025481565b6702c68af0bb14000034116105e6576040517f08c379a000000000000000000000000000000000000000000000000000000000815260040180806020018281038252601f8152602001807f53686f756c642068617665206d6f7265207468616e206d696e2076616c75650081525060200191505060405180910390fd5b346002600082825401925050819055506001339080600181540180825580915050600190039060005260206000200160009091909190916101000a81548173ffffffffffffffffffffffffffffffffffffffff021916908373ffffffffffffffffffffffffffffffffffffffff160217905550565b6000600180549050905090565b6001818154811061067557fe5b906000526020600020016000915054906101000a900473ffffffffffffffffffffffffffffffffffffffff1681565b82805482825590600052602060002090810192821561071d579160200282015b8281111561071c5782518260006101000a81548173ffffffffffffffffffffffffffffffffffffffff021916908373ffffffffffffffffffffffffffffffffffffffff160217905550916020019190600101906106c4565b5b50905061072a919061072e565b5090565b61076e91905b8082111561076a57600081816101000a81549073ffffffffffffffffffffffffffffffffffffffff021916905550600101610734565b5090565b9056fea2646970667358221220a679f1e7f6a463a0eb041c4f9e446174f4af1f31b6aee64d3e52abe9ba3003a164736f6c63430006000033",
  "source": "pragma solidity ^0.6.0;\n\n\ncontract Lottery {\n    address public owner;\n    address[] public players;\n    uint256 public balance;\n\n    constructor() public {\n        owner = msg.sender;\n    }\n\n    modifier restricted() {\n        require(msg.sender == owner, \"Only the Owner can call this\");\n        _;\n    }\n\n    function enterLottery() public payable {\n        require(msg.value > 0.2 ether, \"Should have more than min value\");\n        balance += msg.value;\n        players.push(msg.sender);\n    }\n\n    function random() public view returns (uint256) {\n        return\n            uint256(\n                keccak256(\n                    abi.encodePacked(block.difficulty, block.timestamp, players)\n                )\n            );\n    }\n\n    function pickWinner() public restricted {\n        uint256 index = random() % players.length;\n        payable(players[index]).transfer(balance);\n        players = new address[](0);\n        balance = 0;\n    }\n\n    function playersLength() public view returns (uint256) {\n        return players.length;\n    }\n\n    function allPlayers() public view returns (address[] memory) {\n        return players;\n    }\n}\n",
  "sourcePath": "/home/biryani/Desktop/consensolabs/learning/lottery-dapp/contracts/Lottery.sol",
  "compiler": {
    "name": "solc",
    "version": "0.6.0+commit.26b70077.Emscripten.clang"
  },
  "schemaVersion": "3.2.0",
  "updatedAt": "2020-06-05T03:58:53.161Z",
  "networkType": "ethereum",
  "devdoc": {
    "methods": {}
  },
  "userdoc": {
    "methods": {}
  }
}